{
  "address": "0x5FbDB2315678afecb367f032d93F642f64180aa3",
  "abi": [
    {
      "inputs": [
        {
          "internalType": "address",
          "name": "_payeer",
          "type": "address"
        },
        {
          "internalType": "address payable",
          "name": "_payee",
          "type": "address"
        },
        {
          "internalType": "uint256",
          "name": "_amount",
          "type": "uint256"
        }
      ],
      "stateMutability": "nonpayable",
      "type": "constructor"
    },
    {
      "inputs": [],
      "name": "amount",
      "outputs": [
        {
          "internalType": "uint256",
          "name": "",
          "type": "uint256"
        }
      ],
      "stateMutability": "view",
      "type": "function"
    },
    {
      "inputs": [],
      "name": "balanceOf",
      "outputs": [
        {
          "internalType": "uint256",
          "name": "",
          "type": "uint256"
        }
      ],
      "stateMutability": "view",
      "type": "function"
    },
    {
      "inputs": [],
      "name": "deposit",
      "outputs": [],
      "stateMutability": "payable",
      "type": "function"
    },
    {
      "inputs": [],
      "name": "lawyer",
      "outputs": [
        {
          "internalType": "address",
          "name": "",
          "type": "address"
        }
      ],
      "stateMutability": "view",
      "type": "function"
    },
    {
      "inputs": [],
      "name": "payeer",
      "outputs": [
        {
          "internalType": "address",
          "name": "",
          "type": "address"
        }
      ],
      "stateMutability": "view",
      "type": "function"
    },
    {
      "inputs": [],
      "name": "release",
      "outputs": [],
      "stateMutability": "nonpayable",
      "type": "function"
    }
  ],
  "transactionHash": "0x5caa57688144343a451cef9c5c5d21d536367f460e6e4f1af05f76d31854e60d",
  "args": [
    "0x70997970C51812dc3A010C7d01b50e0d17dc79C8",
    "0x3C44CdDdB6a900fa2b585dd299e03d12FA4293BC",
    "300"
  ],
  "numDeployments": 1,
  "solcInputHash": "9e9378c904c3fe40491e63ed034fc6d8",
  "bytecode": "0x608060405234801561001057600080fd5b506040516107dc3803806107dc833981810160405281019061003291906101da565b82600160006101000a81548173ffffffffffffffffffffffffffffffffffffffff021916908373ffffffffffffffffffffffffffffffffffffffff16021790555081600260006101000a81548173ffffffffffffffffffffffffffffffffffffffff021916908373ffffffffffffffffffffffffffffffffffffffff16021790555080600381905550336000806101000a81548173ffffffffffffffffffffffffffffffffffffffff021916908373ffffffffffffffffffffffffffffffffffffffff16021790555050505061022d565b600080fd5b600073ffffffffffffffffffffffffffffffffffffffff82169050919050565b600061013382610108565b9050919050565b61014381610128565b811461014e57600080fd5b50565b6000815190506101608161013a565b92915050565b600061017182610108565b9050919050565b61018181610166565b811461018c57600080fd5b50565b60008151905061019e81610178565b92915050565b6000819050919050565b6101b7816101a4565b81146101c257600080fd5b50565b6000815190506101d4816101ae565b92915050565b6000806000606084860312156101f3576101f2610103565b5b600061020186828701610151565b93505060206102128682870161018f565b9250506040610223868287016101c5565b9150509250925092565b6105a08061023c6000396000f3fe6080604052600436106100555760003560e01c80630665e7721461005a5780633bfb6e3114610085578063722713f7146100b057806386d1a69f146100db578063aa8c217c146100f2578063d0e30db01461011d575b600080fd5b34801561006657600080fd5b5061006f610127565b60405161007c91906103a0565b60405180910390f35b34801561009157600080fd5b5061009a61014d565b6040516100a791906103a0565b60405180910390f35b3480156100bc57600080fd5b506100c5610171565b6040516100d291906103d4565b60405180910390f35b3480156100e757600080fd5b506100f0610179565b005b3480156100fe57600080fd5b506101076102b8565b60405161011491906103d4565b60405180910390f35b6101256102be565b005b600160009054906101000a900473ffffffffffffffffffffffffffffffffffffffff1681565b60008054906101000a900473ffffffffffffffffffffffffffffffffffffffff1681565b600047905090565b60035447146101bd576040517f08c379a00000000000000000000000000000000000000000000000000000000081526004016101b490610472565b60405180910390fd5b60008054906101000a900473ffffffffffffffffffffffffffffffffffffffff1673ffffffffffffffffffffffffffffffffffffffff163373ffffffffffffffffffffffffffffffffffffffff161461024b576040517f08c379a0000000000000000000000000000000000000000000000000000000008152600401610242906104de565b60405180910390fd5b600260009054906101000a900473ffffffffffffffffffffffffffffffffffffffff1673ffffffffffffffffffffffffffffffffffffffff166108fc6003549081150290604051600060405180830381858888f193505050501580156102b5573d6000803e3d6000fd5b50565b60035481565b600160009054906101000a900473ffffffffffffffffffffffffffffffffffffffff1673ffffffffffffffffffffffffffffffffffffffff163373ffffffffffffffffffffffffffffffffffffffff161461034e576040517f08c379a00000000000000000000000000000000000000000000000000000000081526004016103459061054a565b60405180910390fd5b60035447111561035d57600080fd5b565b600073ffffffffffffffffffffffffffffffffffffffff82169050919050565b600061038a8261035f565b9050919050565b61039a8161037f565b82525050565b60006020820190506103b56000830184610391565b92915050565b6000819050919050565b6103ce816103bb565b82525050565b60006020820190506103e960008301846103c5565b92915050565b600082825260208201905092915050565b7f63616e6e6f742072656c656173652066756e64206265666f72652066756c6c2060008201527f616d6f756e742069732073656e74000000000000000000000000000000000000602082015250565b600061045c602e836103ef565b915061046782610400565b604082019050919050565b6000602082019050818103600083015261048b8161044f565b9050919050565b7f6f6e6c79206c61777965722063616e2072656c656173652066756e6473000000600082015250565b60006104c8601d836103ef565b91506104d382610492565b602082019050919050565b600060208201905081810360008301526104f7816104bb565b9050919050565b7f73656e646572206d757374206265207468652070617965657200000000000000600082015250565b60006105346019836103ef565b915061053f826104fe565b602082019050919050565b6000602082019050818103600083015261056381610527565b905091905056fea26469706673582212208b1bbd175f4a522776a0bf2107c9b2c3f1f9f3a781f21dc98d8efd127af9805e64736f6c63430008110033",
  "devdoc": {
    "kind": "dev",
    "methods": {},
    "version": 1
  },
  "userdoc": {
    "kind": "user",
    "methods": {},
    "version": 1
  },
  "storageLayout": {
    "storage": [
      {
        "astId": 3,
        "contract": "contracts/Escrow.sol:Escrow",
        "label": "lawyer",
        "offset": 0,
        "slot": "0",
        "type": "t_address"
      },
      {
        "astId": 5,
        "contract": "contracts/Escrow.sol:Escrow",
        "label": "payeer",
        "offset": 0,
        "slot": "1",
        "type": "t_address"
      },
      {
        "astId": 7,
        "contract": "contracts/Escrow.sol:Escrow",
        "label": "payee",
        "offset": 0,
        "slot": "2",
        "type": "t_address_payable"
      },
      {
        "astId": 9,
        "contract": "contracts/Escrow.sol:Escrow",
        "label": "amount",
        "offset": 0,
        "slot": "3",
        "type": "t_uint256"
      }
    ],
    "types": {
      "t_address": {
        "encoding": "inplace",
        "label": "address",
        "numberOfBytes": "20"
      },
      "t_address_payable": {
        "encoding": "inplace",
        "label": "address payable",
        "numberOfBytes": "20"
      },
      "t_uint256": {
        "encoding": "inplace",
        "label": "uint256",
        "numberOfBytes": "32"
      }
    }
  }
}